{
  "_format": "hh-sol-artifact-1",
  "contractName": "DestripeCollection",
  "sourceName": "contracts/DestripeCollection.sol",
  "abi": [
    {
      "inputs": [],
      "stateMutability": "nonpayable",
      "type": "constructor"
    },
    {
      "inputs": [
        {
          "internalType": "address",
          "name": "sender",
          "type": "address"
        },
        {
          "internalType": "uint256",
          "name": "tokenId",
          "type": "uint256"
        },
        {
          "internalType": "address",
          "name": "owner",
          "type": "address"
        }
      ],
      "name": "ERC721IncorrectOwner",
      "type": "error"
    },
    {
      "inputs": [
        {
          "internalType": "address",
          "name": "operator",
          "type": "address"
        },
        {
          "internalType": "uint256",
          "name": "tokenId",
          "type": "uint256"
        }
      ],
      "name": "ERC721InsufficientApproval",
      "type": "error"
    },
    {
      "inputs": [
        {
          "internalType": "address",
          "name": "approver",
          "type": "address"
        }
      ],
      "name": "ERC721InvalidApprover",
      "type": "error"
    },
    {
      "inputs": [
        {
          "internalType": "address",
          "name": "operator",
          "type": "address"
        }
      ],
      "name": "ERC721InvalidOperator",
      "type": "error"
    },
    {
      "inputs": [
        {
          "internalType": "address",
          "name": "owner",
          "type": "address"
        }
      ],
      "name": "ERC721InvalidOwner",
      "type": "error"
    },
    {
      "inputs": [
        {
          "internalType": "address",
          "name": "receiver",
          "type": "address"
        }
      ],
      "name": "ERC721InvalidReceiver",
      "type": "error"
    },
    {
      "inputs": [
        {
          "internalType": "address",
          "name": "sender",
          "type": "address"
        }
      ],
      "name": "ERC721InvalidSender",
      "type": "error"
    },
    {
      "inputs": [
        {
          "internalType": "uint256",
          "name": "tokenId",
          "type": "uint256"
        }
      ],
      "name": "ERC721NonexistentToken",
      "type": "error"
    },
    {
      "inputs": [
        {
          "internalType": "address",
          "name": "owner",
          "type": "address"
        }
      ],
      "name": "OwnableInvalidOwner",
      "type": "error"
    },
    {
      "inputs": [
        {
          "internalType": "address",
          "name": "account",
          "type": "address"
        }
      ],
      "name": "OwnableUnauthorizedAccount",
      "type": "error"
    },
    {
      "anonymous": false,
      "inputs": [
        {
          "indexed": true,
          "internalType": "address",
          "name": "owner",
          "type": "address"
        },
        {
          "indexed": true,
          "internalType": "address",
          "name": "approved",
          "type": "address"
        },
        {
          "indexed": true,
          "internalType": "uint256",
          "name": "tokenId",
          "type": "uint256"
        }
      ],
      "name": "Approval",
      "type": "event"
    },
    {
      "anonymous": false,
      "inputs": [
        {
          "indexed": true,
          "internalType": "address",
          "name": "owner",
          "type": "address"
        },
        {
          "indexed": true,
          "internalType": "address",
          "name": "operator",
          "type": "address"
        },
        {
          "indexed": false,
          "internalType": "bool",
          "name": "approved",
          "type": "bool"
        }
      ],
      "name": "ApprovalForAll",
      "type": "event"
    },
    {
      "anonymous": false,
      "inputs": [
        {
          "indexed": true,
          "internalType": "address",
          "name": "previousOwner",
          "type": "address"
        },
        {
          "indexed": true,
          "internalType": "address",
          "name": "newOwner",
          "type": "address"
        }
      ],
      "name": "OwnershipTransferred",
      "type": "event"
    },
    {
      "anonymous": false,
      "inputs": [
        {
          "indexed": true,
          "internalType": "address",
          "name": "from",
          "type": "address"
        },
        {
          "indexed": true,
          "internalType": "address",
          "name": "to",
          "type": "address"
        },
        {
          "indexed": true,
          "internalType": "uint256",
          "name": "tokenId",
          "type": "uint256"
        }
      ],
      "name": "Transfer",
      "type": "event"
    },
    {
      "inputs": [
        {
          "internalType": "address",
          "name": "to",
          "type": "address"
        },
        {
          "internalType": "uint256",
          "name": "tokenId",
          "type": "uint256"
        }
      ],
      "name": "approve",
      "outputs": [],
      "stateMutability": "nonpayable",
      "type": "function"
    },
    {
      "inputs": [],
      "name": "authorizedContract",
      "outputs": [
        {
          "internalType": "address",
          "name": "",
          "type": "address"
        }
      ],
      "stateMutability": "view",
      "type": "function"
    },
    {
      "inputs": [
        {
          "internalType": "address",
          "name": "owner",
          "type": "address"
        }
      ],
      "name": "balanceOf",
      "outputs": [
        {
          "internalType": "uint256",
          "name": "",
          "type": "uint256"
        }
      ],
      "stateMutability": "view",
      "type": "function"
    },
    {
      "inputs": [],
      "name": "baseURI",
      "outputs": [
        {
          "internalType": "string",
          "name": "",
          "type": "string"
        }
      ],
      "stateMutability": "view",
      "type": "function"
    },
    {
      "inputs": [
        {
          "internalType": "uint256",
          "name": "tokenId",
          "type": "uint256"
        }
      ],
      "name": "burn",
      "outputs": [],
      "stateMutability": "nonpayable",
      "type": "function"
    },
    {
      "inputs": [
        {
          "internalType": "uint256",
          "name": "tokenId",
          "type": "uint256"
        }
      ],
      "name": "getApproved",
      "outputs": [
        {
          "internalType": "address",
          "name": "",
          "type": "address"
        }
      ],
      "stateMutability": "view",
      "type": "function"
    },
    {
      "inputs": [],
      "name": "getLastTokenId",
      "outputs": [
        {
          "internalType": "uint256",
          "name": "",
          "type": "uint256"
        }
      ],
      "stateMutability": "view",
      "type": "function"
    },
    {
      "inputs": [
        {
          "internalType": "address",
          "name": "owner",
          "type": "address"
        },
        {
          "internalType": "address",
          "name": "operator",
          "type": "address"
        }
      ],
      "name": "isApprovedForAll",
      "outputs": [
        {
          "internalType": "bool",
          "name": "",
          "type": "bool"
        }
      ],
      "stateMutability": "view",
      "type": "function"
    },
    {
      "inputs": [
        {
          "internalType": "address",
          "name": "customer",
          "type": "address"
        }
      ],
      "name": "mint",
      "outputs": [
        {
          "internalType": "uint256",
          "name": "",
          "type": "uint256"
        }
      ],
      "stateMutability": "nonpayable",
      "type": "function"
    },
    {
      "inputs": [],
      "name": "name",
      "outputs": [
        {
          "internalType": "string",
          "name": "",
          "type": "string"
        }
      ],
      "stateMutability": "view",
      "type": "function"
    },
    {
      "inputs": [],
      "name": "owner",
      "outputs": [
        {
          "internalType": "address",
          "name": "",
          "type": "address"
        }
      ],
      "stateMutability": "view",
      "type": "function"
    },
    {
      "inputs": [
        {
          "internalType": "uint256",
          "name": "tokenId",
          "type": "uint256"
        }
      ],
      "name": "ownerOf",
      "outputs": [
        {
          "internalType": "address",
          "name": "",
          "type": "address"
        }
      ],
      "stateMutability": "view",
      "type": "function"
    },
    {
      "inputs": [],
      "name": "renounceOwnership",
      "outputs": [],
      "stateMutability": "nonpayable",
      "type": "function"
    },
    {
      "inputs": [
        {
          "internalType": "address",
          "name": "from",
          "type": "address"
        },
        {
          "internalType": "address",
          "name": "to",
          "type": "address"
        },
        {
          "internalType": "uint256",
          "name": "tokenId",
          "type": "uint256"
        }
      ],
      "name": "safeTransferFrom",
      "outputs": [],
      "stateMutability": "nonpayable",
      "type": "function"
    },
    {
      "inputs": [
        {
          "internalType": "address",
          "name": "from",
          "type": "address"
        },
        {
          "internalType": "address",
          "name": "to",
          "type": "address"
        },
        {
          "internalType": "uint256",
          "name": "tokenId",
          "type": "uint256"
        },
        {
          "internalType": "bytes",
          "name": "data",
          "type": "bytes"
        }
      ],
      "name": "safeTransferFrom",
      "outputs": [],
      "stateMutability": "nonpayable",
      "type": "function"
    },
    {
      "inputs": [
        {
          "internalType": "address",
          "name": "operator",
          "type": "address"
        },
        {
          "internalType": "bool",
          "name": "approval",
          "type": "bool"
        }
      ],
      "name": "setApprovalForAll",
      "outputs": [],
      "stateMutability": "nonpayable",
      "type": "function"
    },
    {
      "inputs": [
        {
          "internalType": "address",
          "name": "newAuthorizedContract",
          "type": "address"
        }
      ],
      "name": "setAuthorizedContract",
      "outputs": [],
      "stateMutability": "nonpayable",
      "type": "function"
    },
    {
      "inputs": [
        {
          "internalType": "string",
          "name": "newAuthorizedURI",
          "type": "string"
        }
      ],
      "name": "setBaseURI",
      "outputs": [],
      "stateMutability": "nonpayable",
      "type": "function"
    },
    {
      "inputs": [
        {
          "internalType": "bytes4",
          "name": "interfaceId",
          "type": "bytes4"
        }
      ],
      "name": "supportsInterface",
      "outputs": [
        {
          "internalType": "bool",
          "name": "",
          "type": "bool"
        }
      ],
      "stateMutability": "view",
      "type": "function"
    },
    {
      "inputs": [],
      "name": "symbol",
      "outputs": [
        {
          "internalType": "string",
          "name": "",
          "type": "string"
        }
      ],
      "stateMutability": "view",
      "type": "function"
    },
    {
      "inputs": [
        {
          "internalType": "uint256",
          "name": "tokenId",
          "type": "uint256"
        }
      ],
      "name": "tokenURI",
      "outputs": [
        {
          "internalType": "string",
          "name": "",
          "type": "string"
        }
      ],
      "stateMutability": "view",
      "type": "function"
    },
    {
      "inputs": [
        {
          "internalType": "address",
          "name": "from",
          "type": "address"
        },
        {
          "internalType": "address",
          "name": "to",
          "type": "address"
        },
        {
          "internalType": "uint256",
          "name": "tokenId",
          "type": "uint256"
        }
      ],
      "name": "transferFrom",
      "outputs": [],
      "stateMutability": "nonpayable",
      "type": "function"
    },
    {
      "inputs": [
        {
          "internalType": "address",
          "name": "newOwner",
          "type": "address"
        }
      ],
      "name": "transferOwnership",
      "outputs": [],
      "stateMutability": "nonpayable",
      "type": "function"
    }
  ],
  "bytecode": "0x60806040526040518060400160405280601a81526020017f687474703a2f2f6c6f63616c686f73743a333030302f6e66742f000000000000815250600990816200004a9190620004b9565b503480156200005857600080fd5b50336040518060400160405280601281526020017f4465737472697065436f6c6c656374696f6e00000000000000000000000000008152506040518060400160405280600381526020017f44535000000000000000000000000000000000000000000000000000000000008152508160009081620000d79190620004b9565b508060019081620000e99190620004b9565b505050600073ffffffffffffffffffffffffffffffffffffffff168173ffffffffffffffffffffffffffffffffffffffff1603620001615760006040517f1e4fbdf7000000000000000000000000000000000000000000000000000000008152600401620001589190620005e5565b60405180910390fd5b62000172816200017960201b60201c565b5062000602565b6000600660009054906101000a900473ffffffffffffffffffffffffffffffffffffffff16905081600660006101000a81548173ffffffffffffffffffffffffffffffffffffffff021916908373ffffffffffffffffffffffffffffffffffffffff1602179055508173ffffffffffffffffffffffffffffffffffffffff168173ffffffffffffffffffffffffffffffffffffffff167f8be0079c531659141344cd1fd0a4f28419497f9722a3daafe3b4186f6b6457e060405160405180910390a35050565b600081519050919050565b7f4e487b7100000000000000000000000000000000000000000000000000000000600052604160045260246000fd5b7f4e487b7100000000000000000000000000000000000000000000000000000000600052602260045260246000fd5b60006002820490506001821680620002c157607f821691505b602082108103620002d757620002d662000279565b5b50919050565b60008190508160005260206000209050919050565b60006020601f8301049050919050565b600082821b905092915050565b600060088302620003417fffffffffffffffffffffffffffffffffffffffffffffffffffffffffffffffff8262000302565b6200034d868362000302565b95508019841693508086168417925050509392505050565b6000819050919050565b6000819050919050565b60006200039a620003946200038e8462000365565b6200036f565b62000365565b9050919050565b6000819050919050565b620003b68362000379565b620003ce620003c582620003a1565b8484546200030f565b825550505050565b600090565b620003e5620003d6565b620003f2818484620003ab565b505050565b5b818110156200041a576200040e600082620003db565b600181019050620003f8565b5050565b601f82111562000469576200043381620002dd565b6200043e84620002f2565b810160208510156200044e578190505b620004666200045d85620002f2565b830182620003f7565b50505b505050565b600082821c905092915050565b60006200048e600019846008026200046e565b1980831691505092915050565b6000620004a983836200047b565b9150826002028217905092915050565b620004c4826200023f565b67ffffffffffffffff811115620004e057620004df6200024a565b5b620004ec8254620002a8565b620004f98282856200041e565b600060209050601f8311600181146200053157600084156200051c578287015190505b6200052885826200049b565b86555062000598565b601f1984166200054186620002dd565b60005b828110156200056b5784890151825560018201915060208501945060208101905062000544565b868310156200058b578489015162000587601f8916826200047b565b8355505b6001600288020188555050505b505050505050565b600073ffffffffffffffffffffffffffffffffffffffff82169050919050565b6000620005cd82620005a0565b9050919050565b620005df81620005c0565b82525050565b6000602082019050620005fc6000830184620005d4565b92915050565b612ac580620006126000396000f3fe608060405234801561001057600080fd5b506004361061014d5760003560e01c806370a08231116100c3578063a22cb4651161007c578063a22cb4651461038a578063a6591cdf146103a6578063b88d4fde146103c4578063c87b56dd146103e0578063e985e9c514610410578063f2fde38b146104405761014d565b806370a08231146102da578063715018a61461030a57806383c4c00d146103145780638da5cb5b1461033257806395d89b41146103505780639aad69e71461036e5761014d565b806342842e0e1161011557806342842e0e1461020857806342966c681461022457806355f804b3146102405780636352211e1461025c5780636a6278421461028c5780636c0360eb146102bc5761014d565b806301ffc9a71461015257806306fdde0314610182578063081812fc146101a0578063095ea7b3146101d057806323b872dd146101ec575b600080fd5b61016c60048036038101906101679190611dd7565b61045c565b6040516101799190611e1f565b60405180910390f35b61018a61053e565b6040516101979190611eca565b60405180910390f35b6101ba60048036038101906101b59190611f22565b6105d0565b6040516101c79190611f90565b60405180910390f35b6101ea60048036038101906101e59190611fd7565b6105ec565b005b61020660048036038101906102019190612017565b610602565b005b610222600480360381019061021d9190612017565b610704565b005b61023e60048036038101906102399190611f22565b610724565b005b61025a600480360381019061025591906120cf565b6107fd565b005b61027660048036038101906102719190611f22565b61081b565b6040516102839190611f90565b60405180910390f35b6102a660048036038101906102a1919061211c565b61082d565b6040516102b39190612158565b60405180910390f35b6102c4610958565b6040516102d19190611eca565b60405180910390f35b6102f460048036038101906102ef919061211c565b6109e6565b6040516103019190612158565b60405180910390f35b610312610aa0565b005b61031c610ab4565b6040516103299190612158565b60405180910390f35b61033a610aca565b6040516103479190611f90565b60405180910390f35b610358610af4565b6040516103659190611eca565b60405180910390f35b6103886004803603810190610383919061211c565b610b86565b005b6103a4600480360381019061039f919061219f565b610bd2565b005b6103ae610c0b565b6040516103bb9190611f90565b60405180910390f35b6103de60048036038101906103d9919061230f565b610c31565b005b6103fa60048036038101906103f59190611f22565b610c4e565b6040516104079190611eca565b60405180910390f35b61042a60048036038101906104259190612392565b610c88565b6040516104379190611e1f565b60405180910390f35b61045a6004803603810190610455919061211c565b610d1c565b005b60007f80ac58cd000000000000000000000000000000000000000000000000000000007bffffffffffffffffffffffffffffffffffffffffffffffffffffffff1916827bffffffffffffffffffffffffffffffffffffffffffffffffffffffff1916148061052757507f5b5e139f000000000000000000000000000000000000000000000000000000007bffffffffffffffffffffffffffffffffffffffffffffffffffffffff1916827bffffffffffffffffffffffffffffffffffffffffffffffffffffffff1916145b80610537575061053682610da2565b5b9050919050565b60606000805461054d90612401565b80601f016020809104026020016040519081016040528092919081815260200182805461057990612401565b80156105c65780601f1061059b576101008083540402835291602001916105c6565b820191906000526020600020905b8154815290600101906020018083116105a957829003601f168201915b5050505050905090565b60006105db82610e0c565b506105e582610e94565b9050919050565b6105fe82826105f9610ed1565b610ed9565b5050565b600073ffffffffffffffffffffffffffffffffffffffff168273ffffffffffffffffffffffffffffffffffffffff16036106745760006040517f64a0ae9200000000000000000000000000000000000000000000000000000000815260040161066b9190611f90565b60405180910390fd5b60006106888383610683610ed1565b610eeb565b90508373ffffffffffffffffffffffffffffffffffffffff168173ffffffffffffffffffffffffffffffffffffffff16146106fe578382826040517f64283d7b0000000000000000000000000000000000000000000000000000000081526004016106f593929190612432565b60405180910390fd5b50505050565b61071f83838360405180602001604052806000815250610c31565b505050565b600860009054906101000a900473ffffffffffffffffffffffffffffffffffffffff1673ffffffffffffffffffffffffffffffffffffffff163373ffffffffffffffffffffffffffffffffffffffff1614806107b25750610783610aca565b73ffffffffffffffffffffffffffffffffffffffff163373ffffffffffffffffffffffffffffffffffffffff16145b6107f1576040517f08c379a00000000000000000000000000000000000000000000000000000000081526004016107e8906124db565b60405180910390fd5b6107fa81611105565b50565b61080561118b565b8181600991826108169291906126b2565b505050565b600061082682610e0c565b9050919050565b6000600860009054906101000a900473ffffffffffffffffffffffffffffffffffffffff1673ffffffffffffffffffffffffffffffffffffffff163373ffffffffffffffffffffffffffffffffffffffff1614806108bd575061088e610aca565b73ffffffffffffffffffffffffffffffffffffffff163373ffffffffffffffffffffffffffffffffffffffff16145b6108fc576040517f08c379a00000000000000000000000000000000000000000000000000000000081526004016108f3906127f4565b60405180910390fd5b60006007600081548092919061091190612843565b9190505590506109218382611212565b61094f83600860009054906101000a900473ffffffffffffffffffffffffffffffffffffffff166001611230565b80915050919050565b6009805461096590612401565b80601f016020809104026020016040519081016040528092919081815260200182805461099190612401565b80156109de5780601f106109b3576101008083540402835291602001916109de565b820191906000526020600020905b8154815290600101906020018083116109c157829003601f168201915b505050505081565b60008073ffffffffffffffffffffffffffffffffffffffff168273ffffffffffffffffffffffffffffffffffffffff1603610a595760006040517f89c62b64000000000000000000000000000000000000000000000000000000008152600401610a509190611f90565b60405180910390fd5b600360008373ffffffffffffffffffffffffffffffffffffffff1673ffffffffffffffffffffffffffffffffffffffff168152602001908152602001600020549050919050565b610aa861118b565b610ab2600061139f565b565b60006001600754610ac5919061288b565b905090565b6000600660009054906101000a900473ffffffffffffffffffffffffffffffffffffffff16905090565b606060018054610b0390612401565b80601f0160208091040260200160405190810160405280929190818152602001828054610b2f90612401565b8015610b7c5780601f10610b5157610100808354040283529160200191610b7c565b820191906000526020600020905b815481529060010190602001808311610b5f57829003601f168201915b5050505050905090565b610b8e61118b565b80600860006101000a81548173ffffffffffffffffffffffffffffffffffffffff021916908373ffffffffffffffffffffffffffffffffffffffff16021790555050565b610bda61118b565b610c0782600860009054906101000a900473ffffffffffffffffffffffffffffffffffffffff1683611230565b5050565b600860009054906101000a900473ffffffffffffffffffffffffffffffffffffffff1681565b610c3c848484610602565b610c4884848484611465565b50505050565b6060610c5861161c565b610c61836116ae565b604051602001610c72929190612921565b6040516020818303038152906040529050919050565b6000600560008473ffffffffffffffffffffffffffffffffffffffff1673ffffffffffffffffffffffffffffffffffffffff16815260200190815260200160002060008373ffffffffffffffffffffffffffffffffffffffff1673ffffffffffffffffffffffffffffffffffffffff16815260200190815260200160002060009054906101000a900460ff16905092915050565b610d2461118b565b600073ffffffffffffffffffffffffffffffffffffffff168173ffffffffffffffffffffffffffffffffffffffff1603610d965760006040517f1e4fbdf7000000000000000000000000000000000000000000000000000000008152600401610d8d9190611f90565b60405180910390fd5b610d9f8161139f565b50565b60007f01ffc9a7000000000000000000000000000000000000000000000000000000007bffffffffffffffffffffffffffffffffffffffffffffffffffffffff1916827bffffffffffffffffffffffffffffffffffffffffffffffffffffffff1916149050919050565b600080610e188361177c565b9050600073ffffffffffffffffffffffffffffffffffffffff168173ffffffffffffffffffffffffffffffffffffffff1603610e8b57826040517f7e273289000000000000000000000000000000000000000000000000000000008152600401610e829190612158565b60405180910390fd5b80915050919050565b60006004600083815260200190815260200160002060009054906101000a900473ffffffffffffffffffffffffffffffffffffffff169050919050565b600033905090565b610ee683838360016117b9565b505050565b600080610ef78461177c565b9050600073ffffffffffffffffffffffffffffffffffffffff168373ffffffffffffffffffffffffffffffffffffffff1614610f3957610f3881848661197e565b5b600073ffffffffffffffffffffffffffffffffffffffff168173ffffffffffffffffffffffffffffffffffffffff1614610fca57610f7b6000856000806117b9565b6001600360008373ffffffffffffffffffffffffffffffffffffffff1673ffffffffffffffffffffffffffffffffffffffff168152602001908152602001600020600082825403925050819055505b600073ffffffffffffffffffffffffffffffffffffffff168573ffffffffffffffffffffffffffffffffffffffff161461104d576001600360008773ffffffffffffffffffffffffffffffffffffffff1673ffffffffffffffffffffffffffffffffffffffff168152602001908152602001600020600082825401925050819055505b846002600086815260200190815260200160002060006101000a81548173ffffffffffffffffffffffffffffffffffffffff021916908373ffffffffffffffffffffffffffffffffffffffff160217905550838573ffffffffffffffffffffffffffffffffffffffff168273ffffffffffffffffffffffffffffffffffffffff167fddf252ad1be2c89b69c2b068fc378daa952ba7f163c4a11628f55a4df523b3ef60405160405180910390a4809150509392505050565b60006111146000836000610eeb565b9050600073ffffffffffffffffffffffffffffffffffffffff168173ffffffffffffffffffffffffffffffffffffffff160361118757816040517f7e27328900000000000000000000000000000000000000000000000000000000815260040161117e9190612158565b60405180910390fd5b5050565b611193610ed1565b73ffffffffffffffffffffffffffffffffffffffff166111b1610aca565b73ffffffffffffffffffffffffffffffffffffffff1614611210576111d4610ed1565b6040517f118cdaa70000000000000000000000000000000000000000000000000000000081526004016112079190611f90565b60405180910390fd5b565b61122c828260405180602001604052806000815250611a42565b5050565b600073ffffffffffffffffffffffffffffffffffffffff168273ffffffffffffffffffffffffffffffffffffffff16036112a157816040517f5b08ba180000000000000000000000000000000000000000000000000000000081526004016112989190611f90565b60405180910390fd5b80600560008573ffffffffffffffffffffffffffffffffffffffff1673ffffffffffffffffffffffffffffffffffffffff16815260200190815260200160002060008473ffffffffffffffffffffffffffffffffffffffff1673ffffffffffffffffffffffffffffffffffffffff16815260200190815260200160002060006101000a81548160ff0219169083151502179055508173ffffffffffffffffffffffffffffffffffffffff168373ffffffffffffffffffffffffffffffffffffffff167f17307eab39ab6107e8899845ad3d59bd9653f200f220920489ca2b5937696c31836040516113929190611e1f565b60405180910390a3505050565b6000600660009054906101000a900473ffffffffffffffffffffffffffffffffffffffff16905081600660006101000a81548173ffffffffffffffffffffffffffffffffffffffff021916908373ffffffffffffffffffffffffffffffffffffffff1602179055508173ffffffffffffffffffffffffffffffffffffffff168173ffffffffffffffffffffffffffffffffffffffff167f8be0079c531659141344cd1fd0a4f28419497f9722a3daafe3b4186f6b6457e060405160405180910390a35050565b60008373ffffffffffffffffffffffffffffffffffffffff163b1115611616578273ffffffffffffffffffffffffffffffffffffffff1663150b7a026114a9610ed1565b8685856040518563ffffffff1660e01b81526004016114cb94939291906129a9565b6020604051808303816000875af192505050801561150757506040513d601f19601f820116820180604052508101906115049190612a0a565b60015b61158b573d8060008114611537576040519150601f19603f3d011682016040523d82523d6000602084013e61153c565b606091505b50600081510361158357836040517f64a0ae9200000000000000000000000000000000000000000000000000000000815260040161157a9190611f90565b60405180910390fd5b805181602001fd5b63150b7a0260e01b7bffffffffffffffffffffffffffffffffffffffffffffffffffffffff1916817bffffffffffffffffffffffffffffffffffffffffffffffffffffffff19161461161457836040517f64a0ae9200000000000000000000000000000000000000000000000000000000815260040161160b9190611f90565b60405180910390fd5b505b50505050565b60606009805461162b90612401565b80601f016020809104026020016040519081016040528092919081815260200182805461165790612401565b80156116a45780601f10611679576101008083540402835291602001916116a4565b820191906000526020600020905b81548152906001019060200180831161168757829003601f168201915b5050505050905090565b6060600060016116bd84611a5e565b01905060008167ffffffffffffffff8111156116dc576116db6121e4565b5b6040519080825280601f01601f19166020018201604052801561170e5781602001600182028036833780820191505090505b509050600082602001820190505b600115611771578080600190039150507f3031323334353637383961626364656600000000000000000000000000000000600a86061a8153600a858161176557611764612a37565b5b0494506000850361171c575b819350505050919050565b60006002600083815260200190815260200160002060009054906101000a900473ffffffffffffffffffffffffffffffffffffffff169050919050565b80806117f25750600073ffffffffffffffffffffffffffffffffffffffff168273ffffffffffffffffffffffffffffffffffffffff1614155b1561192657600061180284610e0c565b9050600073ffffffffffffffffffffffffffffffffffffffff168373ffffffffffffffffffffffffffffffffffffffff161415801561186d57508273ffffffffffffffffffffffffffffffffffffffff168173ffffffffffffffffffffffffffffffffffffffff1614155b8015611880575061187e8184610c88565b155b156118c257826040517fa9fbf51f0000000000000000000000000000000000000000000000000000000081526004016118b99190611f90565b60405180910390fd5b811561192457838573ffffffffffffffffffffffffffffffffffffffff168273ffffffffffffffffffffffffffffffffffffffff167f8c5be1e5ebec7d5bd14f71427d1e84f3dd0314c0f7b2291e5b200ac8c7c3b92560405160405180910390a45b505b836004600085815260200190815260200160002060006101000a81548173ffffffffffffffffffffffffffffffffffffffff021916908373ffffffffffffffffffffffffffffffffffffffff16021790555050505050565b611989838383611bb1565b611a3d57600073ffffffffffffffffffffffffffffffffffffffff168373ffffffffffffffffffffffffffffffffffffffff16036119fe57806040517f7e2732890000000000000000000000000000000000000000000000000000000081526004016119f59190612158565b60405180910390fd5b81816040517f177e802f000000000000000000000000000000000000000000000000000000008152600401611a34929190612a66565b60405180910390fd5b505050565b611a4c8383611c72565b611a596000848484611465565b505050565b600080600090507a184f03e93ff9f4daa797ed6e38ed64bf6a1f0100000000000000008310611abc577a184f03e93ff9f4daa797ed6e38ed64bf6a1f0100000000000000008381611ab257611ab1612a37565b5b0492506040810190505b6d04ee2d6d415b85acef81000000008310611af9576d04ee2d6d415b85acef81000000008381611aef57611aee612a37565b5b0492506020810190505b662386f26fc100008310611b2857662386f26fc100008381611b1e57611b1d612a37565b5b0492506010810190505b6305f5e1008310611b51576305f5e1008381611b4757611b46612a37565b5b0492506008810190505b6127108310611b76576127108381611b6c57611b6b612a37565b5b0492506004810190505b60648310611b995760648381611b8f57611b8e612a37565b5b0492506002810190505b600a8310611ba8576001810190505b80915050919050565b60008073ffffffffffffffffffffffffffffffffffffffff168373ffffffffffffffffffffffffffffffffffffffff1614158015611c6957508273ffffffffffffffffffffffffffffffffffffffff168473ffffffffffffffffffffffffffffffffffffffff161480611c2a5750611c298484610c88565b5b80611c6857508273ffffffffffffffffffffffffffffffffffffffff16611c5083610e94565b73ffffffffffffffffffffffffffffffffffffffff16145b5b90509392505050565b600073ffffffffffffffffffffffffffffffffffffffff168273ffffffffffffffffffffffffffffffffffffffff1603611ce45760006040517f64a0ae92000000000000000000000000000000000000000000000000000000008152600401611cdb9190611f90565b60405180910390fd5b6000611cf283836000610eeb565b9050600073ffffffffffffffffffffffffffffffffffffffff168173ffffffffffffffffffffffffffffffffffffffff1614611d665760006040517f73c6ac6e000000000000000000000000000000000000000000000000000000008152600401611d5d9190611f90565b60405180910390fd5b505050565b6000604051905090565b600080fd5b600080fd5b60007fffffffff0000000000000000000000000000000000000000000000000000000082169050919050565b611db481611d7f565b8114611dbf57600080fd5b50565b600081359050611dd181611dab565b92915050565b600060208284031215611ded57611dec611d75565b5b6000611dfb84828501611dc2565b91505092915050565b60008115159050919050565b611e1981611e04565b82525050565b6000602082019050611e346000830184611e10565b92915050565b600081519050919050565b600082825260208201905092915050565b60005b83811015611e74578082015181840152602081019050611e59565b60008484015250505050565b6000601f19601f8301169050919050565b6000611e9c82611e3a565b611ea68185611e45565b9350611eb6818560208601611e56565b611ebf81611e80565b840191505092915050565b60006020820190508181036000830152611ee48184611e91565b905092915050565b6000819050919050565b611eff81611eec565b8114611f0a57600080fd5b50565b600081359050611f1c81611ef6565b92915050565b600060208284031215611f3857611f37611d75565b5b6000611f4684828501611f0d565b91505092915050565b600073ffffffffffffffffffffffffffffffffffffffff82169050919050565b6000611f7a82611f4f565b9050919050565b611f8a81611f6f565b82525050565b6000602082019050611fa56000830184611f81565b92915050565b611fb481611f6f565b8114611fbf57600080fd5b50565b600081359050611fd181611fab565b92915050565b60008060408385031215611fee57611fed611d75565b5b6000611ffc85828601611fc2565b925050602061200d85828601611f0d565b9150509250929050565b6000806000606084860312156120305761202f611d75565b5b600061203e86828701611fc2565b935050602061204f86828701611fc2565b925050604061206086828701611f0d565b9150509250925092565b600080fd5b600080fd5b600080fd5b60008083601f84011261208f5761208e61206a565b5b8235905067ffffffffffffffff8111156120ac576120ab61206f565b5b6020830191508360018202830111156120c8576120c7612074565b5b9250929050565b600080602083850312156120e6576120e5611d75565b5b600083013567ffffffffffffffff81111561210457612103611d7a565b5b61211085828601612079565b92509250509250929050565b60006020828403121561213257612131611d75565b5b600061214084828501611fc2565b91505092915050565b61215281611eec565b82525050565b600060208201905061216d6000830184612149565b92915050565b61217c81611e04565b811461218757600080fd5b50565b60008135905061219981612173565b92915050565b600080604083850312156121b6576121b5611d75565b5b60006121c485828601611fc2565b92505060206121d58582860161218a565b9150509250929050565b600080fd5b7f4e487b7100000000000000000000000000000000000000000000000000000000600052604160045260246000fd5b61221c82611e80565b810181811067ffffffffffffffff8211171561223b5761223a6121e4565b5b80604052505050565b600061224e611d6b565b905061225a8282612213565b919050565b600067ffffffffffffffff82111561227a576122796121e4565b5b61228382611e80565b9050602081019050919050565b82818337600083830152505050565b60006122b26122ad8461225f565b612244565b9050828152602081018484840111156122ce576122cd6121df565b5b6122d9848285612290565b509392505050565b600082601f8301126122f6576122f561206a565b5b813561230684826020860161229f565b91505092915050565b6000806000806080858703121561232957612328611d75565b5b600061233787828801611fc2565b945050602061234887828801611fc2565b935050604061235987828801611f0d565b925050606085013567ffffffffffffffff81111561237a57612379611d7a565b5b612386878288016122e1565b91505092959194509250565b600080604083850312156123a9576123a8611d75565b5b60006123b785828601611fc2565b92505060206123c885828601611fc2565b9150509250929050565b7f4e487b7100000000000000000000000000000000000000000000000000000000600052602260045260246000fd5b6000600282049050600182168061241957607f821691505b60208210810361242c5761242b6123d2565b5b50919050565b60006060820190506124476000830186611f81565b6124546020830185612149565b6124616040830184611f81565b949350505050565b7f4f6e6c7920746865206f776e6572206f7220617574686f72697a656420636f6e60008201527f74726163742063616e206275726e206120746f6b656e00000000000000000000602082015250565b60006124c5603683611e45565b91506124d082612469565b604082019050919050565b600060208201905081810360008301526124f4816124b8565b9050919050565b600082905092915050565b60008190508160005260206000209050919050565b60006020601f8301049050919050565b600082821b905092915050565b6000600883026125687fffffffffffffffffffffffffffffffffffffffffffffffffffffffffffffffff8261252b565b612572868361252b565b95508019841693508086168417925050509392505050565b6000819050919050565b60006125af6125aa6125a584611eec565b61258a565b611eec565b9050919050565b6000819050919050565b6125c983612594565b6125dd6125d5826125b6565b848454612538565b825550505050565b600090565b6125f26125e5565b6125fd8184846125c0565b505050565b5b81811015612621576126166000826125ea565b600181019050612603565b5050565b601f8211156126665761263781612506565b6126408461251b565b8101602085101561264f578190505b61266361265b8561251b565b830182612602565b50505b505050565b600082821c905092915050565b60006126896000198460080261266b565b1980831691505092915050565b60006126a28383612678565b9150826002028217905092915050565b6126bc83836124fb565b67ffffffffffffffff8111156126d5576126d46121e4565b5b6126df8254612401565b6126ea828285612625565b6000601f8311600181146127195760008415612707578287013590505b6127118582612696565b865550612779565b601f19841661272786612506565b60005b8281101561274f5784890135825560018201915060208501945060208101905061272a565b8683101561276c5784890135612768601f891682612678565b8355505b6001600288020188555050505b50505050505050565b7f4f6e6c7920746865206f776e6572206f7220617574686f72697a656420636f6e60008201527f74726163742063616e206d696e74000000000000000000000000000000000000602082015250565b60006127de602e83611e45565b91506127e982612782565b604082019050919050565b6000602082019050818103600083015261280d816127d1565b9050919050565b7f4e487b7100000000000000000000000000000000000000000000000000000000600052601160045260246000fd5b600061284e82611eec565b91507fffffffffffffffffffffffffffffffffffffffffffffffffffffffffffffffff82036128805761287f612814565b5b600182019050919050565b600061289682611eec565b91506128a183611eec565b92508282039050818111156128b9576128b8612814565b5b92915050565b600081905092915050565b60006128d582611e3a565b6128df81856128bf565b93506128ef818560208601611e56565b80840191505092915050565b7f2e6a736f6e000000000000000000000000000000000000000000000000000000815250565b600061292d82856128ca565b915061293982846128ca565b9150612944826128fb565b6005820191508190509392505050565b600081519050919050565b600082825260208201905092915050565b600061297b82612954565b612985818561295f565b9350612995818560208601611e56565b61299e81611e80565b840191505092915050565b60006080820190506129be6000830187611f81565b6129cb6020830186611f81565b6129d86040830185612149565b81810360608301526129ea8184612970565b905095945050505050565b600081519050612a0481611dab565b92915050565b600060208284031215612a2057612a1f611d75565b5b6000612a2e848285016129f5565b91505092915050565b7f4e487b7100000000000000000000000000000000000000000000000000000000600052601260045260246000fd5b6000604082019050612a7b6000830185611f81565b612a886020830184612149565b939250505056fea2646970667358221220f932df29ddcecac2529dd320ee41ba7779edd08813f01ff20e25126956901efb64736f6c63430008180033",
  "linkReferences": {},
  "deployedLinkReferences": {}
}